{
 "consensusContractName": "PolygonPessimisticConsensus",
 "rollupAddress": "0x1655f30B495586cDC5E1E332844FabF7363b3667",
 "genesis": "0x0000000000000000000000000000000000000000000000000000000000000000",
 "gasTokenAddress": "0x0000000000000000000000000000000000000000",
 "rollupManagerAddress": "0xA51c1fc2f0D1a1b8494Ed1FE312d7C3a78Ed91C0",
 "scheduleData": "0x01d5062a000000000000000000000000a51c1fc2f0d1a1b8494ed1fe312d7c3a78ed91c0000000000000000000000000000000000000000000000000000000000000000000000000000000000000000000000000000000000000000000000000000000c00000000000000000000000000000000000000000000000000000000000000000000000000000000000000000000000000000000000000000000000000000000000000000000000000000000000000000000000000000000000000000000000010000000000000000000000000000000000000000000000000000000000000164727885e900000000000000000000000000000000000000000000000000000000000000010000000000000000000000000000000000000000000000000000000000000fa1000000000000000000000000f39fd6e51aad88f6f4ce6ab8827279cfffb92266000000000000000000000000f39fd6e51aad88f6f4ce6ab8827279cfffb92266000000000000000000000000000000000000000000000000000000000000000000000000000000000000000000000000000000000000000000000000000000e00000000000000000000000000000000000000000000000000000000000000120000000000000000000000000000000000000000000000000000000000000001a687474703a2f2f7a6b65766d2d6a736f6e2d7270633a3831323300000000000000000000000000000000000000000000000000000000000000000000000000057a6b65766d00000000000000000000000000000000000000000000000000000000000000000000000000000000000000000000000000000000000000",
 "executeData": "0x134008d3000000000000000000000000a51c1fc2f0d1a1b8494ed1fe312d7c3a78ed91c0000000000000000000000000000000000000000000000000000000000000000000000000000000000000000000000000000000000000000000000000000000a0000000000000000000000000000000000000000000000000000000000000000000000000000000000000000000000000000000000000000000000000000000000000000000000000000000000000000000000000000000000000000000000164727885e900000000000000000000000000000000000000000000000000000000000000010000000000000000000000000000000000000000000000000000000000000fa1000000000000000000000000f39fd6e51aad88f6f4ce6ab8827279cfffb92266000000000000000000000000f39fd6e51aad88f6f4ce6ab8827279cfffb92266000000000000000000000000000000000000000000000000000000000000000000000000000000000000000000000000000000000000000000000000000000e00000000000000000000000000000000000000000000000000000000000000120000000000000000000000000000000000000000000000000000000000000001a687474703a2f2f7a6b65766d2d6a736f6e2d7270633a3831323300000000000000000000000000000000000000000000000000000000000000000000000000057a6b65766d00000000000000000000000000000000000000000000000000000000000000000000000000000000000000000000000000000000000000",
 "decodedScheduleData": {
  "target": "0xA51c1fc2f0D1a1b8494Ed1FE312d7C3a78Ed91C0",
  "value": 0,
  "data": "0x727885e900000000000000000000000000000000000000000000000000000000000000010000000000000000000000000000000000000000000000000000000000000fa1000000000000000000000000f39fd6e51aad88f6f4ce6ab8827279cfffb92266000000000000000000000000f39fd6e51aad88f6f4ce6ab8827279cfffb92266000000000000000000000000000000000000000000000000000000000000000000000000000000000000000000000000000000000000000000000000000000e00000000000000000000000000000000000000000000000000000000000000120000000000000000000000000000000000000000000000000000000000000001a687474703a2f2f7a6b65766d2d6a736f6e2d7270633a3831323300000000000000000000000000000000000000000000000000000000000000000000000000057a6b65766d000000000000000000000000000000000000000000000000000000",
  "decodedData": {
   "rollupTypeID": 1,
   "chainID": 4001,
   "admin": "0xf39Fd6e51aad88F6F4ce6aB8827279cffFb92266",
   "sequencer": "0xf39Fd6e51aad88F6F4ce6aB8827279cffFb92266",
   "gasTokenAddress": "0x0000000000000000000000000000000000000000",
   "sequencerURL": "http://zkevm-json-rpc:8123",
   "networkName": "zkevm"
  },
  "predecessor": "0x0000000000000000000000000000000000000000000000000000000000000000",
  "salt": "0x0000000000000000000000000000000000000000000000000000000000000000",
  "delay": 1
 }
}