{
 "scheduleData": "0x01d5062a00000000000000000000000085ceb41028b1a5ed2b88e395145344837308b251000000000000000000000000000000000000000000000000000000000000000000000000000000000000000000000000000000000000000000000000000000c0000000000000000000000000000000000000000000000000000000000000000000000000000000000000000000000000000000000000000000000000000000000000000000000000000000000000000000000000000000000000000000000e10000000000000000000000000000000000000000000000000000000000000004499a88ec400000000000000000000000032d33d5137a7cffb54c5bf8371172bcec5f310ff00000000000000000000000028460c7aaf7bda2d754160fba944df11e9af744700000000000000000000000000000000000000000000000000000000",
 "executeData": "0x134008d300000000000000000000000085ceb41028b1a5ed2b88e395145344837308b251000000000000000000000000000000000000000000000000000000000000000000000000000000000000000000000000000000000000000000000000000000a000000000000000000000000000000000000000000000000000000000000000000000000000000000000000000000000000000000000000000000000000000000000000000000000000000000000000000000000000000000000000000000004499a88ec400000000000000000000000032d33d5137a7cffb54c5bf8371172bcec5f310ff00000000000000000000000028460c7aaf7bda2d754160fba944df11e9af744700000000000000000000000000000000000000000000000000000000",
 "timelockContractAddress": "0xfd8ACe213595faC05d45714e8e2a63Df267E3545",
 "decodedScheduleData": {
  "target": "0x85cEB41028B1a5ED2b88E395145344837308b251",
  "value": "0",
  "data": "0x99a88ec400000000000000000000000032d33d5137a7cffb54c5bf8371172bcec5f310ff00000000000000000000000028460c7aaf7bda2d754160fba944df11e9af7447",
  "decodedData": {
   "signature": "upgrade(address,address)",
   "selector": "0x99a88ec4",
   "proxy": "0x32d33D5137a7cFFb54c5Bf8371172bcEc5f310ff",
   "implementation": "0x28460c7Aaf7bdA2d754160FBa944dF11e9aF7447"
  },
  "predecessor": "0x0000000000000000000000000000000000000000000000000000000000000000",
  "salt": "0x0000000000000000000000000000000000000000000000000000000000000000",
  "delay": "3600"
 }
}